{
  "_format": "hh-sol-artifact-1",
  "contractName": "MessengerV1",
  "sourceName": "contracts/messenger/MessengerV1.sol",
  "abi": [
    {
      "inputs": [
        {
          "internalType": "address",
          "name": "_lzEndpoint",
          "type": "address"
        }
      ],
      "stateMutability": "nonpayable",
      "type": "constructor"
    },
    {
      "anonymous": false,
      "inputs": [
        {
          "indexed": false,
          "internalType": "uint16",
          "name": "_srcChainId",
          "type": "uint16"
        },
        {
          "indexed": false,
          "internalType": "bytes",
          "name": "_srcAddress",
          "type": "bytes"
        },
        {
          "indexed": false,
          "internalType": "uint64",
          "name": "_nonce",
          "type": "uint64"
        },
        {
          "indexed": false,
          "internalType": "bytes",
          "name": "_payload",
          "type": "bytes"
        },
        {
          "indexed": false,
          "internalType": "bytes",
          "name": "_reason",
          "type": "bytes"
        }
      ],
      "name": "MessageFailed",
      "type": "event"
    },
    {
      "anonymous": false,
      "inputs": [
        {
          "indexed": true,
          "internalType": "address",
          "name": "previousOwner",
          "type": "address"
        },
        {
          "indexed": true,
          "internalType": "address",
          "name": "newOwner",
          "type": "address"
        }
      ],
      "name": "OwnershipTransferred",
      "type": "event"
    },
    {
      "anonymous": false,
      "inputs": [
        {
          "indexed": false,
          "internalType": "uint16",
          "name": "_srcChainId",
          "type": "uint16"
        },
        {
          "indexed": false,
          "internalType": "bytes",
          "name": "_srcAddress",
          "type": "bytes"
        },
        {
          "indexed": false,
          "internalType": "uint64",
          "name": "_nonce",
          "type": "uint64"
        },
        {
          "indexed": false,
          "internalType": "bytes32",
          "name": "_payloadHash",
          "type": "bytes32"
        }
      ],
      "name": "RetryMessageSuccess",
      "type": "event"
    },
    {
      "anonymous": false,
      "inputs": [
        {
          "indexed": false,
          "internalType": "uint16",
          "name": "_dstChainId",
          "type": "uint16"
        },
        {
          "indexed": false,
          "internalType": "uint16",
          "name": "_type",
          "type": "uint16"
        },
        {
          "indexed": false,
          "internalType": "uint256",
          "name": "_minDstGas",
          "type": "uint256"
        }
      ],
      "name": "SetMinDstGas",
      "type": "event"
    },
    {
      "anonymous": false,
      "inputs": [
        {
          "indexed": false,
          "internalType": "address",
          "name": "precrime",
          "type": "address"
        }
      ],
      "name": "SetPrecrime",
      "type": "event"
    },
    {
      "anonymous": false,
      "inputs": [
        {
          "indexed": false,
          "internalType": "uint16",
          "name": "_remoteChainId",
          "type": "uint16"
        },
        {
          "indexed": false,
          "internalType": "bytes",
          "name": "_path",
          "type": "bytes"
        }
      ],
      "name": "SetTrustedRemote",
      "type": "event"
    },
    {
      "anonymous": false,
      "inputs": [
        {
          "indexed": false,
          "internalType": "uint16",
          "name": "_remoteChainId",
          "type": "uint16"
        },
        {
          "indexed": false,
          "internalType": "bytes",
          "name": "_remoteAddress",
          "type": "bytes"
        }
      ],
      "name": "SetTrustedRemoteAddress",
      "type": "event"
    },
    {
      "inputs": [],
      "name": "DEFAULT_PAYLOAD_SIZE_LIMIT",
      "outputs": [
        {
          "internalType": "uint256",
          "name": "",
          "type": "uint256"
        }
      ],
      "stateMutability": "view",
      "type": "function"
    },
    {
      "inputs": [
        {
          "internalType": "uint16",
          "name": "_dstChainId",
          "type": "uint16"
        },
        {
          "internalType": "string",
          "name": "_message",
          "type": "string"
        },
        {
          "internalType": "bool",
          "name": "_useZro",
          "type": "bool"
        },
        {
          "internalType": "bytes",
          "name": "_adapterParams",
          "type": "bytes"
        }
      ],
      "name": "estimateFee",
      "outputs": [
        {
          "internalType": "uint256",
          "name": "nativeFee",
          "type": "uint256"
        },
        {
          "internalType": "uint256",
          "name": "zroFee",
          "type": "uint256"
        }
      ],
      "stateMutability": "view",
      "type": "function"
    },
    {
      "inputs": [
        {
          "internalType": "uint16",
          "name": "",
          "type": "uint16"
        },
        {
          "internalType": "bytes",
          "name": "",
          "type": "bytes"
        },
        {
          "internalType": "uint64",
          "name": "",
          "type": "uint64"
        }
      ],
      "name": "failedMessages",
      "outputs": [
        {
          "internalType": "bytes32",
          "name": "",
          "type": "bytes32"
        }
      ],
      "stateMutability": "view",
      "type": "function"
    },
    {
      "inputs": [
        {
          "internalType": "uint16",
          "name": "_srcChainId",
          "type": "uint16"
        },
        {
          "internalType": "bytes",
          "name": "_srcAddress",
          "type": "bytes"
        }
      ],
      "name": "forceResumeReceive",
      "outputs": [],
      "stateMutability": "nonpayable",
      "type": "function"
    },
    {
      "inputs": [
        {
          "internalType": "uint16",
          "name": "_version",
          "type": "uint16"
        },
        {
          "internalType": "uint16",
          "name": "_chainId",
          "type": "uint16"
        },
        {
          "internalType": "address",
          "name": "",
          "type": "address"
        },
        {
          "internalType": "uint256",
          "name": "_configType",
          "type": "uint256"
        }
      ],
      "name": "getConfig",
      "outputs": [
        {
          "internalType": "bytes",
          "name": "",
          "type": "bytes"
        }
      ],
      "stateMutability": "view",
      "type": "function"
    },
    {
      "inputs": [
        {
          "internalType": "uint16",
          "name": "_remoteChainId",
          "type": "uint16"
        }
      ],
      "name": "getTrustedRemoteAddress",
      "outputs": [
        {
          "internalType": "bytes",
          "name": "",
          "type": "bytes"
        }
      ],
      "stateMutability": "view",
      "type": "function"
    },
    {
      "inputs": [
        {
          "internalType": "uint16",
          "name": "_srcChainId",
          "type": "uint16"
        },
        {
          "internalType": "bytes",
          "name": "_srcAddress",
          "type": "bytes"
        }
      ],
      "name": "isTrustedRemote",
      "outputs": [
        {
          "internalType": "bool",
          "name": "",
          "type": "bool"
        }
      ],
      "stateMutability": "view",
      "type": "function"
    },
    {
      "inputs": [],
      "name": "lastMessage",
      "outputs": [
        {
          "internalType": "string",
          "name": "",
          "type": "string"
        }
      ],
      "stateMutability": "view",
      "type": "function"
    },
    {
      "inputs": [],
      "name": "lzEndpoint",
      "outputs": [
        {
          "internalType": "contract ILayerZeroEndpoint",
          "name": "",
          "type": "address"
        }
      ],
      "stateMutability": "view",
      "type": "function"
    },
    {
      "inputs": [
        {
          "internalType": "uint16",
          "name": "_srcChainId",
          "type": "uint16"
        },
        {
          "internalType": "bytes",
          "name": "_srcAddress",
          "type": "bytes"
        },
        {
          "internalType": "uint64",
          "name": "_nonce",
          "type": "uint64"
        },
        {
          "internalType": "bytes",
          "name": "_payload",
          "type": "bytes"
        }
      ],
      "name": "lzReceive",
      "outputs": [],
      "stateMutability": "nonpayable",
      "type": "function"
    },
    {
      "inputs": [
        {
          "internalType": "uint16",
          "name": "",
          "type": "uint16"
        },
        {
          "internalType": "uint16",
          "name": "",
          "type": "uint16"
        }
      ],
      "name": "minDstGasLookup",
      "outputs": [
        {
          "internalType": "uint256",
          "name": "",
          "type": "uint256"
        }
      ],
      "stateMutability": "view",
      "type": "function"
    },
    {
      "inputs": [
        {
          "internalType": "uint16",
          "name": "_srcChainId",
          "type": "uint16"
        },
        {
          "internalType": "bytes",
          "name": "_srcAddress",
          "type": "bytes"
        },
        {
          "internalType": "uint64",
          "name": "_nonce",
          "type": "uint64"
        },
        {
          "internalType": "bytes",
          "name": "_payload",
          "type": "bytes"
        }
      ],
      "name": "nonblockingLzReceive",
      "outputs": [],
      "stateMutability": "nonpayable",
      "type": "function"
    },
    {
      "inputs": [],
      "name": "owner",
      "outputs": [
        {
          "internalType": "address",
          "name": "",
          "type": "address"
        }
      ],
      "stateMutability": "view",
      "type": "function"
    },
    {
      "inputs": [
        {
          "internalType": "uint16",
          "name": "",
          "type": "uint16"
        }
      ],
      "name": "payloadSizeLimitLookup",
      "outputs": [
        {
          "internalType": "uint256",
          "name": "",
          "type": "uint256"
        }
      ],
      "stateMutability": "view",
      "type": "function"
    },
    {
      "inputs": [],
      "name": "precrime",
      "outputs": [
        {
          "internalType": "address",
          "name": "",
          "type": "address"
        }
      ],
      "stateMutability": "view",
      "type": "function"
    },
    {
      "inputs": [],
      "name": "renounceOwnership",
      "outputs": [],
      "stateMutability": "nonpayable",
      "type": "function"
    },
    {
      "inputs": [
        {
          "internalType": "uint16",
          "name": "_srcChainId",
          "type": "uint16"
        },
        {
          "internalType": "bytes",
          "name": "_srcAddress",
          "type": "bytes"
        },
        {
          "internalType": "uint64",
          "name": "_nonce",
          "type": "uint64"
        },
        {
          "internalType": "bytes",
          "name": "_payload",
          "type": "bytes"
        }
      ],
      "name": "retryMessage",
      "outputs": [],
      "stateMutability": "payable",
      "type": "function"
    },
    {
      "inputs": [
        {
          "internalType": "uint16",
          "name": "_dstChainId",
          "type": "uint16"
        },
        {
          "internalType": "string",
          "name": "_message",
          "type": "string"
        }
      ],
      "name": "sendMessage",
      "outputs": [],
      "stateMutability": "payable",
      "type": "function"
    },
    {
      "inputs": [
        {
          "internalType": "uint16",
          "name": "_version",
          "type": "uint16"
        },
        {
          "internalType": "uint16",
          "name": "_chainId",
          "type": "uint16"
        },
        {
          "internalType": "uint256",
          "name": "_configType",
          "type": "uint256"
        },
        {
          "internalType": "bytes",
          "name": "_config",
          "type": "bytes"
        }
      ],
      "name": "setConfig",
      "outputs": [],
      "stateMutability": "nonpayable",
      "type": "function"
    },
    {
      "inputs": [
        {
          "internalType": "uint16",
          "name": "_dstChainId",
          "type": "uint16"
        },
        {
          "internalType": "uint16",
          "name": "_packetType",
          "type": "uint16"
        },
        {
          "internalType": "uint256",
          "name": "_minGas",
          "type": "uint256"
        }
      ],
      "name": "setMinDstGas",
      "outputs": [],
      "stateMutability": "nonpayable",
      "type": "function"
    },
    {
      "inputs": [
        {
          "internalType": "uint16",
          "name": "_dstChainId",
          "type": "uint16"
        },
        {
          "internalType": "uint256",
          "name": "_size",
          "type": "uint256"
        }
      ],
      "name": "setPayloadSizeLimit",
      "outputs": [],
      "stateMutability": "nonpayable",
      "type": "function"
    },
    {
      "inputs": [
        {
          "internalType": "address",
          "name": "_precrime",
          "type": "address"
        }
      ],
      "name": "setPrecrime",
      "outputs": [],
      "stateMutability": "nonpayable",
      "type": "function"
    },
    {
      "inputs": [
        {
          "internalType": "uint16",
          "name": "_version",
          "type": "uint16"
        }
      ],
      "name": "setReceiveVersion",
      "outputs": [],
      "stateMutability": "nonpayable",
      "type": "function"
    },
    {
      "inputs": [
        {
          "internalType": "uint16",
          "name": "_version",
          "type": "uint16"
        }
      ],
      "name": "setSendVersion",
      "outputs": [],
      "stateMutability": "nonpayable",
      "type": "function"
    },
    {
      "inputs": [
        {
          "internalType": "uint16",
          "name": "_remoteChainId",
          "type": "uint16"
        },
        {
          "internalType": "bytes",
          "name": "_path",
          "type": "bytes"
        }
      ],
      "name": "setTrustedRemote",
      "outputs": [],
      "stateMutability": "nonpayable",
      "type": "function"
    },
    {
      "inputs": [
        {
          "internalType": "uint16",
          "name": "_remoteChainId",
          "type": "uint16"
        },
        {
          "internalType": "bytes",
          "name": "_remoteAddress",
          "type": "bytes"
        }
      ],
      "name": "setTrustedRemoteAddress",
      "outputs": [],
      "stateMutability": "nonpayable",
      "type": "function"
    },
    {
      "inputs": [
        {
          "internalType": "address",
          "name": "newOwner",
          "type": "address"
        }
      ],
      "name": "transferOwnership",
      "outputs": [],
      "stateMutability": "nonpayable",
      "type": "function"
    },
    {
      "inputs": [
        {
          "internalType": "uint16",
          "name": "",
          "type": "uint16"
        }
      ],
      "name": "trustedRemoteLookup",
      "outputs": [
        {
          "internalType": "bytes",
          "name": "",
          "type": "bytes"
        }
      ],
      "stateMutability": "view",
      "type": "function"
    }
  ],
  "bytecode": "0x60a06040523480156200001157600080fd5b50604051620025af380380620025af8339810160408190526200003491620000a6565b8080620000413362000056565b6001600160a01b031660805250620000d89050565b600080546001600160a01b038381166001600160a01b0319831681178455604051919092169283917f8be0079c531659141344cd1fd0a4f28419497f9722a3daafe3b4186f6b6457e09190a35050565b600060208284031215620000b957600080fd5b81516001600160a01b0381168114620000d157600080fd5b9392505050565b6080516124836200012c600039600081816104bb015281816105c901528181610818015281816108c001528181610a7101528181610d7401528181610f060152818161134801526115c401526124836000f3fe6080604052600436106101b65760003560e01c80638da5cb5b116100ec578063c44618341161008a578063df2a5b3b11610064578063df2a5b3b14610546578063eb8d72b714610566578063f2fde38b14610586578063f5ecbdbc146105a657600080fd5b8063c4461834146104fd578063cbed8b9c14610513578063d1deba1f1461053357600080fd5b8063a122b636116100c6578063a122b63614610454578063a6c3d16514610489578063b353aaa7146104a9578063baf3292d146104dd57600080fd5b80638da5cb5b146103e2578063950c8a74146104145780639f38369a1461043457600080fd5b806342d65a8d1161015957806366ad5c8a1161013357806366ad5c8a14610355578063715018a6146103755780637533d7881461038a5780638cfd8f5c146103aa57600080fd5b806342d65a8d146102d357806347585542146102f35780635b8c41e61461030657600080fd5b806310ddb1371161019557806310ddb1371461021d578063329707101461023d5780633d8b38f6146102685780633f1f4fa41461029857600080fd5b80621d3567146101bb57806307e0db17146101dd5780630df37483146101fd575b600080fd5b3480156101c757600080fd5b506101db6101d6366004611a1d565b6105c6565b005b3480156101e957600080fd5b506101db6101f8366004611ab0565b6107f7565b34801561020957600080fd5b506101db610218366004611acb565b610880565b34801561022957600080fd5b506101db610238366004611ab0565b61089f565b34801561024957600080fd5b506102526108f7565b60405161025f9190611b45565b60405180910390f35b34801561027457600080fd5b50610288610283366004611b58565b610985565b604051901515815260200161025f565b3480156102a457600080fd5b506102c56102b3366004611ab0565b60036020526000908152604090205481565b60405190815260200161025f565b3480156102df57600080fd5b506101db6102ee366004611b58565b610a52565b6101db610301366004611c75565b610ad8565b34801561031257600080fd5b506102c5610321366004611cc2565b6005602090815260009384526040808520845180860184018051928152908401958401959095209452929052825290205481565b34801561036157600080fd5b506101db610370366004611a1d565b610b1f565b34801561038157600080fd5b506101db610bfb565b34801561039657600080fd5b506102526103a5366004611ab0565b610c0f565b3480156103b657600080fd5b506102c56103c5366004611d33565b600260209081526000928352604080842090915290825290205481565b3480156103ee57600080fd5b506000546001600160a01b03165b6040516001600160a01b03909116815260200161025f565b34801561042057600080fd5b506004546103fc906001600160a01b031681565b34801561044057600080fd5b5061025261044f366004611ab0565b610c28565b34801561046057600080fd5b5061047461046f366004611d66565b610d37565b6040805192835260208301919091520161025f565b34801561049557600080fd5b506101db6104a4366004611b58565b610e02565b3480156104b557600080fd5b506103fc7f000000000000000000000000000000000000000000000000000000000000000081565b3480156104e957600080fd5b506101db6104f8366004611e11565b610e8b565b34801561050957600080fd5b506102c561271081565b34801561051f57600080fd5b506101db61052e366004611e2c565b610ee7565b6101db610541366004611a1d565b610f7c565b34801561055257600080fd5b506101db610561366004611e89565b611192565b34801561057257600080fd5b506101db610581366004611b58565b611244565b34801561059257600080fd5b506101db6105a1366004611e11565b61129e565b3480156105b257600080fd5b506102526105c1366004611ec5565b611317565b337f00000000000000000000000000000000000000000000000000000000000000006001600160a01b0316146106435760405162461bcd60e51b815260206004820152601e60248201527f4c7a4170703a20696e76616c696420656e64706f696e742063616c6c6572000060448201526064015b60405180910390fd5b61ffff86166000908152600160205260408120805461066190611f10565b80601f016020809104026020016040519081016040528092919081815260200182805461068d90611f10565b80156106da5780601f106106af576101008083540402835291602001916106da565b820191906000526020600020905b8154815290600101906020018083116106bd57829003601f168201915b505050505090508051868690501480156106f5575060008151115b801561071d5750805160208201206040516107139088908890611f4a565b6040518091039020145b6107785760405162461bcd60e51b815260206004820152602660248201527f4c7a4170703a20696e76616c696420736f757263652073656e64696e6720636f6044820152651b9d1c9858dd60d21b606482015260840161063a565b6107ee8787878080601f01602080910402602001604051908101604052809392919081815260200183838082843760009201919091525050604080516020601f8a018190048102820181019092528881528a9350915088908890819084018382808284376000920191909152506113c892505050565b50505050505050565b6107ff611441565b6040516307e0db1760e01b815261ffff821660048201527f00000000000000000000000000000000000000000000000000000000000000006001600160a01b0316906307e0db17906024015b600060405180830381600087803b15801561086557600080fd5b505af1158015610879573d6000803e3d6000fd5b5050505050565b610888611441565b61ffff909116600090815260036020526040902055565b6108a7611441565b6040516310ddb13760e01b815261ffff821660048201527f00000000000000000000000000000000000000000000000000000000000000006001600160a01b0316906310ddb1379060240161084b565b6006805461090490611f10565b80601f016020809104026020016040519081016040528092919081815260200182805461093090611f10565b801561097d5780601f106109525761010080835404028352916020019161097d565b820191906000526020600020905b81548152906001019060200180831161096057829003601f168201915b505050505081565b61ffff8316600090815260016020526040812080548291906109a690611f10565b80601f01602080910402602001604051908101604052809291908181526020018280546109d290611f10565b8015610a1f5780601f106109f457610100808354040283529160200191610a1f565b820191906000526020600020905b815481529060010190602001808311610a0257829003601f168201915b505050505090508383604051610a36929190611f4a565b60405180910390208180519060200120149150505b9392505050565b610a5a611441565b6040516342d65a8d60e01b81526001600160a01b037f000000000000000000000000000000000000000000000000000000000000000016906342d65a8d90610aaa90869086908690600401611f83565b600060405180830381600087803b158015610ac457600080fd5b505af11580156107ee573d6000803e3d6000fd5b600081604051602001610aeb9190611b45565b6040516020818303038152906040529050610b1a8382336000604051806020016040528060008152503461149b565b505050565b333014610b7d5760405162461bcd60e51b815260206004820152602660248201527f4e6f6e626c6f636b696e674c7a4170703a2063616c6c6572206d7573742062656044820152650204c7a4170760d41b606482015260840161063a565b610bf38686868080601f01602080910402602001604051908101604052809392919081815260200183838082843760009201919091525050604080516020601f89018190048102820181019092528781528993509150879087908190840183828082843760009201919091525061164092505050565b505050505050565b610c03611441565b610c0d60006116b2565b565b6001602052600090815260409020805461090490611f10565b61ffff8116600090815260016020526040812080546060929190610c4b90611f10565b80601f0160208091040260200160405190810160405280929190818152602001828054610c7790611f10565b8015610cc45780601f10610c9957610100808354040283529160200191610cc4565b820191906000526020600020905b815481529060010190602001808311610ca757829003601f168201915b505050505090508051600003610d1c5760405162461bcd60e51b815260206004820152601d60248201527f4c7a4170703a206e6f20747275737465642070617468207265636f7264000000604482015260640161063a565b610a4b600060148351610d2f9190611fb7565b839190611702565b600080600086604051602001610d4d9190611b45565b60408051601f198184030181529082905263040a7bb160e41b825291506001600160a01b037f000000000000000000000000000000000000000000000000000000000000000016906340a7bb1090610db3908b90309086908c908c908c90600401611fd0565b6040805180830381865afa158015610dcf573d6000803e3d6000fd5b505050506040513d601f19601f82011682018060405250810190610df39190612026565b92509250509550959350505050565b610e0a611441565b818130604051602001610e1f9392919061204a565b60408051601f1981840301815291815261ffff8516600090815260016020522090610e4a90826120b6565b507f8c0400cfe2d1199b1a725c78960bcc2a344d869b80590d0f2bd005db15a572ce838383604051610e7e93929190611f83565b60405180910390a1505050565b610e93611441565b600480546001600160a01b0319166001600160a01b0383169081179091556040519081527f5db758e995a17ec1ad84bdef7e8c3293a0bd6179bcce400dff5d4c3d87db726b9060200160405180910390a150565b610eef611441565b6040516332fb62e760e21b81526001600160a01b037f0000000000000000000000000000000000000000000000000000000000000000169063cbed8b9c90610f439088908890889088908890600401612175565b600060405180830381600087803b158015610f5d57600080fd5b505af1158015610f71573d6000803e3d6000fd5b505050505050505050565b61ffff86166000908152600560205260408082209051610f9f9088908890611f4a565b90815260408051602092819003830190206001600160401b0387166000908152925290205490508061101f5760405162461bcd60e51b815260206004820152602360248201527f4e6f6e626c6f636b696e674c7a4170703a206e6f2073746f726564206d65737360448201526261676560e81b606482015260840161063a565b808383604051611030929190611f4a565b60405180910390201461108f5760405162461bcd60e51b815260206004820152602160248201527f4e6f6e626c6f636b696e674c7a4170703a20696e76616c6964207061796c6f616044820152601960fa1b606482015260840161063a565b61ffff871660009081526005602052604080822090516110b29089908990611f4a565b90815260408051602092819003830181206001600160401b038916600090815290845282902093909355601f8801829004820283018201905286825261114a918991899089908190840183828082843760009201919091525050604080516020601f8a018190048102820181019092528881528a93509150889088908190840183828082843760009201919091525061164092505050565b7fc264d91f3adc5588250e1551f547752ca0cfa8f6b530d243b9f9f4cab10ea8e587878787856040516111819594939291906121ae565b60405180910390a150505050505050565b61119a611441565b600081116111e25760405162461bcd60e51b81526020600482015260156024820152744c7a4170703a20696e76616c6964206d696e47617360581b604482015260640161063a565b61ffff83811660008181526002602090815260408083209487168084529482529182902085905581519283528201929092529081018290527f9d5c7c0b934da8fefa9c7760c98383778a12dfbfc0c3b3106518f43fb9508ac090606001610e7e565b61124c611441565b61ffff8316600090815260016020526040902061126a8284836121e9565b507ffa41487ad5d6728f0b19276fa1eddc16558578f5109fc39d2dc33c3230470dab838383604051610e7e93929190611f83565b6112a6611441565b6001600160a01b03811661130b5760405162461bcd60e51b815260206004820152602660248201527f4f776e61626c653a206e6577206f776e657220697320746865207a65726f206160448201526564647265737360d01b606482015260840161063a565b611314816116b2565b50565b604051633d7b2f6f60e21b815261ffff808616600483015284166024820152306044820152606481018290526060907f00000000000000000000000000000000000000000000000000000000000000006001600160a01b03169063f5ecbdbc90608401600060405180830381865afa158015611397573d6000803e3d6000fd5b505050506040513d6000823e601f3d908101601f191682016040526113bf91908101906122d8565b95945050505050565b60008061142b5a60966366ad5c8a60e01b898989896040516024016113f09493929190612328565b60408051601f198184030181529190526020810180516001600160e01b03166001600160e01b0319909316929092179091523092919061180f565b9150915081610bf357610bf38686868685611899565b6000546001600160a01b03163314610c0d5760405162461bcd60e51b815260206004820181905260248201527f4f776e61626c653a2063616c6c6572206973206e6f7420746865206f776e6572604482015260640161063a565b61ffff8616600090815260016020526040812080546114b990611f10565b80601f01602080910402602001604051908101604052809291908181526020018280546114e590611f10565b80156115325780601f1061150757610100808354040283529160200191611532565b820191906000526020600020905b81548152906001019060200180831161151557829003601f168201915b5050505050905080516000036115a35760405162461bcd60e51b815260206004820152603060248201527f4c7a4170703a2064657374696e6174696f6e20636861696e206973206e6f742060448201526f61207472757374656420736f7572636560801b606482015260840161063a565b6115ae878751611936565b60405162c5803160e81b81526001600160a01b037f0000000000000000000000000000000000000000000000000000000000000000169063c5803100908490611605908b9086908c908c908c908c90600401612366565b6000604051808303818588803b15801561161e57600080fd5b505af1158015611632573d6000803e3d6000fd5b505050505050505050505050565b82516028146116875760405162461bcd60e51b8152602060048201526013602482015272092dcecc2d8d2c840c8c2e8c240d8cadccee8d606b1b604482015260640161063a565b601483015181516000906116a490840160209081019085016122d8565b905060066107ee82826120b6565b600080546001600160a01b038381166001600160a01b0319831681178455604051919092169283917f8be0079c531659141344cd1fd0a4f28419497f9722a3daafe3b4186f6b6457e09190a35050565b60608161171081601f6123c0565b101561174f5760405162461bcd60e51b815260206004820152600e60248201526d736c6963655f6f766572666c6f7760901b604482015260640161063a565b61175982846123c0565b8451101561179d5760405162461bcd60e51b8152602060048201526011602482015270736c6963655f6f75744f66426f756e647360781b604482015260640161063a565b6060821580156117bc5760405191506000825260208201604052611806565b6040519150601f8416801560200281840101858101878315602002848b0101015b818310156117f55780518352602092830192016117dd565b5050858452601f01601f1916604052505b50949350505050565b6000606060008060008661ffff166001600160401b0381111561183457611834611baa565b6040519080825280601f01601f19166020018201604052801561185e576020820181803683370190505b50905060008087516020890160008d8df191503d925086831115611880578692505b828152826000602083013e909890975095505050505050565b8180519060200120600560008761ffff1661ffff168152602001908152602001600020856040516118ca91906123d3565b9081526040805191829003602090810183206001600160401b0388166000908152915220919091557fe183f33de2837795525b4792ca4cd60535bd77c53b7e7030060bfcf5734d6b0c9061192790879087908790879087906123ef565b60405180910390a15050505050565b61ffff82166000908152600360205260408120549081900361195757506127105b80821115610b1a5760405162461bcd60e51b815260206004820181905260248201527f4c7a4170703a207061796c6f61642073697a6520697320746f6f206c61726765604482015260640161063a565b803561ffff811681146119b957600080fd5b919050565b60008083601f8401126119d057600080fd5b5081356001600160401b038111156119e757600080fd5b6020830191508360208285010111156119ff57600080fd5b9250929050565b80356001600160401b03811681146119b957600080fd5b60008060008060008060808789031215611a3657600080fd5b611a3f876119a7565b955060208701356001600160401b0380821115611a5b57600080fd5b611a678a838b016119be565b9097509550859150611a7b60408a01611a06565b94506060890135915080821115611a9157600080fd5b50611a9e89828a016119be565b979a9699509497509295939492505050565b600060208284031215611ac257600080fd5b610a4b826119a7565b60008060408385031215611ade57600080fd5b611ae7836119a7565b946020939093013593505050565b60005b83811015611b10578181015183820152602001611af8565b50506000910152565b60008151808452611b31816020860160208601611af5565b601f01601f19169290920160200192915050565b602081526000610a4b6020830184611b19565b600080600060408486031215611b6d57600080fd5b611b76846119a7565b925060208401356001600160401b03811115611b9157600080fd5b611b9d868287016119be565b9497909650939450505050565b634e487b7160e01b600052604160045260246000fd5b604051601f8201601f191681016001600160401b0381118282101715611be857611be8611baa565b604052919050565b60006001600160401b03821115611c0957611c09611baa565b50601f01601f191660200190565b6000611c2a611c2584611bf0565b611bc0565b9050828152838383011115611c3e57600080fd5b828260208301376000602084830101529392505050565b600082601f830112611c6657600080fd5b610a4b83833560208501611c17565b60008060408385031215611c8857600080fd5b611c91836119a7565b915060208301356001600160401b03811115611cac57600080fd5b611cb885828601611c55565b9150509250929050565b600080600060608486031215611cd757600080fd5b611ce0846119a7565b925060208401356001600160401b03811115611cfb57600080fd5b8401601f81018613611d0c57600080fd5b611d1b86823560208401611c17565b925050611d2a60408501611a06565b90509250925092565b60008060408385031215611d4657600080fd5b611d4f836119a7565b9150611d5d602084016119a7565b90509250929050565b600080600080600060808688031215611d7e57600080fd5b611d87866119a7565b945060208601356001600160401b0380821115611da357600080fd5b611daf89838a01611c55565b9550604088013591508115158214611dc657600080fd5b90935060608701359080821115611ddc57600080fd5b50611de9888289016119be565b969995985093965092949392505050565b80356001600160a01b03811681146119b957600080fd5b600060208284031215611e2357600080fd5b610a4b82611dfa565b600080600080600060808688031215611e4457600080fd5b611e4d866119a7565b9450611e5b602087016119a7565b93506040860135925060608601356001600160401b03811115611e7d57600080fd5b611de9888289016119be565b600080600060608486031215611e9e57600080fd5b611ea7846119a7565b9250611eb5602085016119a7565b9150604084013590509250925092565b60008060008060808587031215611edb57600080fd5b611ee4856119a7565b9350611ef2602086016119a7565b9250611f0060408601611dfa565b9396929550929360600135925050565b600181811c90821680611f2457607f821691505b602082108103611f4457634e487b7160e01b600052602260045260246000fd5b50919050565b8183823760009101908152919050565b81835281816020850137506000828201602090810191909152601f909101601f19169091010190565b61ffff841681526040602082015260006113bf604083018486611f5a565b634e487b7160e01b600052601160045260246000fd5b81810381811115611fca57611fca611fa1565b92915050565b61ffff871681526001600160a01b038616602082015260a060408201819052600090611ffe90830187611b19565b85151560608401528281036080840152612019818587611f5a565b9998505050505050505050565b6000806040838503121561203957600080fd5b505080516020909101519092909150565b8284823760609190911b6bffffffffffffffffffffffff19169101908152601401919050565b601f821115610b1a57600081815260208120601f850160051c810160208610156120975750805b601f850160051c820191505b81811015610bf3578281556001016120a3565b81516001600160401b038111156120cf576120cf611baa565b6120e3816120dd8454611f10565b84612070565b602080601f83116001811461211857600084156121005750858301515b600019600386901b1c1916600185901b178555610bf3565b600085815260208120601f198616915b8281101561214757888601518255948401946001909101908401612128565b50858210156121655787850151600019600388901b60f8161c191681555b5050505050600190811b01905550565b600061ffff8088168352808716602084015250846040830152608060608301526121a3608083018486611f5a565b979650505050505050565b61ffff861681526080602082015260006121cc608083018688611f5a565b6001600160401b0394909416604083015250606001529392505050565b6001600160401b0383111561220057612200611baa565b6122148361220e8354611f10565b83612070565b6000601f84116001811461224857600085156122305750838201355b600019600387901b1c1916600186901b178355610879565b600083815260209020601f19861690835b828110156122795786850135825560209485019460019092019101612259565b50868210156122965760001960f88860031b161c19848701351681555b505060018560011b0183555050505050565b60006122b6611c2584611bf0565b90508281528383830111156122ca57600080fd5b610a4b836020830184611af5565b6000602082840312156122ea57600080fd5b81516001600160401b0381111561230057600080fd5b8201601f8101841361231157600080fd5b612320848251602084016122a8565b949350505050565b61ffff851681526080602082015260006123456080830186611b19565b6001600160401b038516604084015282810360608401526121a38185611b19565b61ffff8716815260c06020820152600061238360c0830188611b19565b82810360408401526123958188611b19565b6001600160a01b0387811660608601528616608085015283810360a085015290506120198185611b19565b80820180821115611fca57611fca611fa1565b600082516123e5818460208701611af5565b9190910192915050565b61ffff8616815260a06020820152600061240c60a0830187611b19565b6001600160401b0386166040840152828103606084015261242d8186611b19565b905082810360808401526124418185611b19565b9897505050505050505056fea26469706673582212208293f26cd2046577af11fc959cc0d358b9015c5067b1d4a5edce674ba6f5f37b64736f6c63430008120033",
  "linkReferences": {},
  "deployedLinkReferences": {}
}